:1000000003C1000032C1000030C100002EC1000059
:100010002CC100002AC1000028C1000026C1000038
:1000200024C1000022C1000020C100001EC1000048
:100030001CC100000C94FD0918C1000016C100008D
:1000400014C1000012C1000010C100000EC1000068
:100050000CC100000AC1000008C100000C94BC0AD9
:1000600004C100000C94860A0C945C0AFEC00000D7
:10007000FCC00000FAC00000F8C00000F6C000009C
:10008000F4C00000F2C00000F0C00000EEC00000AC
:10009000ECC00000EAC00000E8C00000E6C00000BC
:1000A000E4C00000E2C00000E0C00000DEC00000CC
:1000B000DCC00000DAC00000D8C00000D6C00000DC
:1000C000D4C00000D2C00000D0C00000CEC00000EC
:1000D000CCC00000CAC00000C8C00000C6C00000FC
:1000E000C4C0000000002100240027002A002D00C9
:1000F0003000330001010000040107010A01000083
:1001000020002300260029002C002F0032000001CF
:10011000000003010601090100000A0B02090C0D91
:100120000E080703040100000000000000000000AA
:1001300000000000000000000000000000000000BF
:10014000000000001211100000000000000000007C
:10015000000000000000000000000000000001029C
:1001600010202008081020401020408002010201C9
:100170000804020101020408102040808040201081
:1001800008040201800402018040201008040201DA
:100190000804020101020408102040800102040842
:1001A0001020408000002200250028002B002E0097
:1001B0003100340002010000050108010B010505B2
:1001C0000505070508080808020202020A0A0808CD
:1001D00004040404010101010101010103030303FB
:1001E00003030303040707070C0C0C0C0C0C0C0C8A
:1001F0000202020206060606060606060B0B0B0B9B
:100200000B0B0B0B0200060B11241FBECFEFD1E22C
:10021000DEBFCDBF00E00CBF24E0AEE7B3E001C01D
:100220001D92AB3CB207E1F713E0A0E0B2E0E8E0DA
:10023000FDE100E00BBF02C007900D92AE37B107A1
:10024000D9F711E0C4E0D1E000E006C02197010930
:10025000802FFE010E947A0EC330D10780E008078C
:10026000A9F70E94BE0B0C94820ECACE96E0899F1D
:10027000D0011124AC5BBB4F90967C936E935F973B
:1002800091E091969C939197E091B104F091B20422
:100290009091B004992339F0309751F0811108C042
:1002A000809160041994309719F05C968C91FACF84
:1002B0000895AF92BF92CF92DF92EF92FF920F9389
:1002C0001F93CF93DF936C017B018B01040F151FEC
:1002D000EB015E01AE18BF08C017D10759F0699154
:1002E000D601ED91FC910190F081E02DC6011995A8
:1002F000892B79F7C501DF91CF911F910F91FF9065
:10030000EF90DF90CF90BF90AF900895FC01538D98
:10031000448D252F30E0842F90E0821B930B5417DF
:1003200010F0CF96089501970895FC01918D828D6C
:10033000981761F0A28DAE0FBF2FB11D5D968C9105
:10034000928D9F5F9F73928F90E008958FEF9FEF44
:100350000895FC01918D828D981731F0828DE80F00
:10036000F11D858D90E008958FEF9FEF0895FC01BA
:10037000918D228D892F90E0805C9F4F821B910987
:100380008F739927089587EA93E0F1DF21E0892BA5
:1003900009F420E0822F0895FC01A48DA80FB92F45
:1003A000B11DA35ABF4F2C91848D90E001968F739D
:1003B0009927848FA689B7892C93A089B1898C91BC
:1003C000837080648C93938D848D981306C002880B
:1003D000F389E02D80818F7D80830895EF92FF92D5
:1003E0000F931F93CF93DF93EC0181E0888F9B8D58
:1003F0008C8D98131AC0E889F989808185FF15C012
:100400009FB7F894EE89FF896083E889F989808134
:100410008370806480839FBF81E090E0DF91CF9103
:100420001F910F91FF90EF900895F62E0B8D10E025
:100430000F5F1F4F0F731127E02E8C8D8E110BC095
:100440000FB607FCFACFE889F989808185FFF5CFDF
:10045000CE01A2DFF2CFEB8DEC0FFD2FF11DE35AA1
:10046000FF4FF0829FB7F8940B8FEA89FB89808158
:100470008062D0CFCF93DF93EC01888D8823B1F0D9
:10048000AA89BB89E889F9898C9185FD03C080819F
:1004900086FD0CC00FB607FCF7CF8C9185FFF2CF1D
:1004A000808185FFEDCFCE0177DFEACFDF91CF915D
:1004B000089580E090E0892B21F065DF81110E9492
:1004C000000080E090E0892B49F080E090E0892BEB
:1004D00029F00E94000081110E94000080E090E05D
:1004E000892B49F080E090E0892B29F00E940000E0
:1004F00081110E94000080E090E0892B49F080E0AB
:1005000090E0892B29F00E94000081110C940000DA
:1005100008958150823108F05AC0E82FF0E0882712
:10052000EB56FD4F8F4F0C947A0EB502B902A7021D
:10053000AD02B102E702BC02C202C602CC02D00286
:10054000D402DA02DE02E702E202E802EC02809163
:1005500080008F77809380000895809180008F7D48
:10056000F9CF80918000877FF5CF84B58F7784BDE8
:10057000089584B58F7DFBCF8091B0008F778093F5
:10058000B00008958091B0008F7DF9CF80919000E8
:100590008F77809390000895809190008F7DF9CFA0
:1005A00080919000877FF5CF8091A0008F77809316
:1005B000A00008958091A0008F7DF9CF8091A000C8
:1005C000877FF5CF809120018F7780932001089558
:1005D000809120018F7DF9CF80912001877FF5CF19
:1005E000CF93DF93282F30E0F901E85EFE4F84912E
:1005F000F901E25AFE4FD491F901E254FE4FC49141
:10060000CC2399F0811185DFEC2FF0E0EE0FFF1F76
:10061000E250FF4FA591B491EC91ED2381E090E081
:1006200009F480E0DF91CF91089580E090E0FACF67
:10063000862FD6CF1F93CF93DF93282F30E0F90179
:10064000E85EFE4F8491F901E25AFE4FD491F90120
:10065000E254FE4FC491CC23A1F0162F811159DF33
:10066000EC2FF0E0EE0FFF1FEC55FE4FA591B4917B
:100670008FB7F894EC91111108C0D095DE23DC936C
:100680008FBFDF91CF911F910895DE2BF8CF862F7A
:10069000642FD0CF9091000289130DC0E4E0F2E006
:1006A000E4919FEF90930002E230D9F030F4EE2312
:1006B00079F0E13081F060E0BDCFE43049F110F134
:1006C000E530C9F7909173009D7F90937300F3CF4D
:1006D00010926E00F0CF90916F009D7F90936F000D
:1006E000EACF909170009D7F9093700091E090937D
:1006F000B0009091B100987F94609093B1001092F7
:10070000B300D9CF909171009D7F90937100D3CFAA
:10071000909172009D7F90937200CDCFCF93DF9325
:1007200090E0FC01E25AFE4F249182549E4FFC015E
:1007300084918823C9F090E0880F991FFC01EC5147
:10074000FF4FA591B491FC01EC55FE4FC591D4919A
:1007500061110DC09FB7F8948C91209582238C93E2
:100760008881282328839FBFDF91CF91089562302D
:1007700051F49FB7F8943C91822F809583238C93FA
:10078000E8812E2BEFCF8FB7F894EC912E2B2C9382
:100790008FBFEACFCF92DF92EF92FF92CF936C019F
:1007A00080910002883049F08F3F09F468C0CF91F2
:1007B000FF90EF90DF90CF900895E4E0F2E0C491D5
:1007C000C7FDF5CF61E088E0A9DFF12CE12CCC2357
:1007D000D1F0960150E040E0C23009F023C17A0127
:1007E00060E970ED83E090E00E945E0EBA01A9011D
:1007F000415051096109710983E04F3F510561057D
:10080000710559F154F168E478EE81E090E0A701B8
:1008100096010E945E0EBA01A90141505109610979
:100820007109CC2309F4B3C1C23009F0A7C14F3F0D
:1008300051056105710509F00CF4A7C164E274EF7C
:1008400080E090E0A70196010E945E0EBA01A90126
:10085000415051096109710985E09091B100987F7B
:10086000892B8093B100C23009F464C10CF05BC1E4
:10087000CC2309F4A6C1C13009F099CFE7C088E0C4
:1008800080930002E4E0F2E0C4918C2FCF3F09F4A2
:100890008ECFC23009F467C058F4CC2371F1C13057
:1008A00009F443C087FD83CF61E088E037DF91CF53
:1008B000C43009F499C008F478C0C53099F7109293
:1008C00020011092210180912101886080932101F3
:1008D00080912101816080932101E6ECF1E0E491B7
:1008E000F0E0EE0FFF1FEC55FE4F85919491E6E688
:1008F000F1E0E491E093870365CF14BC15BC84B5A7
:10090000826084BD85B5816085BDE6ECF1E0E4914F
:10091000F0E0EE0FFF1FEC55FE4F85919491E6E657
:10092000F1E0E491E0938E034DCF1092800010929D
:100930008100809181008860809381008091810096
:10094000816080938100E6ECF1E0E491F0E0EE0F4D
:10095000FF1FEC55FE4F85919491E6E6F1E0E4919E
:10096000E0938D032FCF1092B0001092B1008091D0
:10097000B00082608093B0008091B100816080936C
:10098000B100E6ECF1E0E491F0E0EE0FFF1FEC5572
:10099000FE4F8591949190938C0380938B03E6E6B0
:1009A000F1E0E491E0938A030DCF10929000109251
:1009B00091008091910088608093910080919100D6
:1009C000816080939100E6ECF1E0E491F0E0EE0FBD
:1009D000FF1FEC55FE4F85919491E6E6F1E0E4911E
:1009E000E0938903C3E0EECE1092A0001092A10024
:1009F0008091A10088608093A1008091A100816016
:100A00008093A100E6ECF1E0E491F0E0EE0FFF1F2F
:100A1000EC55FE4F85919491E6E6F1E0E491E09388
:100A20008803D0CE60E072E18AE790E00E945E0E1B
:100A3000BA01A9014150510961097109C130D9F4C4
:100A400080918100887F816080938100509389002C
:100A5000409388008FEF9FEFDC0180939F0390937A
:100A6000A003A093A103B093A20380916F008260C2
:100A700080936F009CCEC330D9F480919100887F21
:100A800081608093910050939900409398008FEF7C
:100A90009FEFDC018093970390939803A0939903B1
:100AA000B0939A03809171008260809371007FCE31
:100AB000C430D9F48091A100887F81608093A10027
:100AC0005093A9004093A8008FEF9FEFDC01809323
:100AD000930390939403A0939503B093960380910E
:100AE000720082608093720062CEC53009F0BBCE86
:100AF00080912101887F8160809321015093290199
:100B0000409328018FEF9FEFDC0180938F03909338
:100B10009003A0939103B09392038091730082603D
:100B20008093730044CEC43059F20CF4ACCFC5307E
:100B300029F33DCE4093B3008FEF9FEFDC0180930C
:100B40009B0390939C03A0939D03B0939E0380917D
:100B500070008260809370002ACE62E17AE780E0C4
:100B600090E0A70196010E945E0EBA01A9014150D2
:100B7000510961097109C1E086E06FCE4F3F51050F
:100B80006105710509F04CF7C1E084E066CE93E0A1
:100B90004F3F51056105710581F07CF062E17AE714
:100BA00080E090E0A70196010E945E0EBA01A901C3
:100BB000415051096109710994E085B5887F892BFD
:100BC00085BD47BD8FEF9FEFDC018093A30390931A
:100BD000A403A093A503B093A60380916E00826046
:100BE00080936E00E4CD862F642F98CD3FB7F894A4
:100BF0008091830390918403A0918503B091860333
:100C000026B5A89B05C02F3F19F00196A11DB11D67
:100C10003FBFBA2FA92F982F8827BC01CD01620FA3
:100C2000711D811D911D42E0660F771F881F991F5E
:100C30004A95D1F708958F929F92AF92BF92CF922B
:100C4000DF92EF92FF924B015C01D0DF6B017C01E0
:100C5000CDDF6C197D098E099F09683E73408105BF
:100C60009105B0F321E0821A9108A108B10888EE3D
:100C7000C80E83E0D81EE11CF11C81149104A1046C
:100C8000B10431F7FF90EF90DF90CF90BF90AF901D
:100C90009F908F9008952FB7F89460917F03709183
:100CA000800380918103909182032FBF08950F9359
:100CB0001F93CF93DF93C82FD62F86E0C89FF001F4
:100CC0001124EC5BFB4F11A2878D90A1813091051F
:100CD000E1F058F082309105D1F1039709F43CC05E
:100CE000DF91CF911F910F9108956623C9F361E0C1
:100CF00070E08C2FBBDACFDF60939C0470939D046F
:100D000080939E0490939F04EBCFC5DF00919C04D9
:100D100010919D0420919E0430919F04AB01BC0171
:100D2000401B510B620B730B8091AE049091AF048A
:100D3000B0E0A0E084179507A607B70740F462E08B
:100D400070E08C2FDF91CF911F910F918FCA63E0DC
:100D500070E0D111C5CFF5CF70E060E0F2CF2F92F7
:100D60003F924F925F926F927F928F929F92AF923B
:100D7000BF92CF92DF92EF92FF920F931F93CF9388
:100D8000DF9322242394812C912C54018394662494
:100D90006A94762C56E0352E2092B0047CDF0091C8
:100DA000A0041091A1042091A2043091A304AB01EE
:100DB000BC01401B510B620B730B8091AC049091F2
:100DC000AD04B0E0A0E084179507A607B70720F7A9
:100DD000C0E08091AA04C81758F4E091A604F091ED
:100DE000A704EC0FF11D62E0808198DCCF5FF1CFAA
:100DF000512C8091AB04581608F05AC0052D10E014
:100E0000E091A804F091A904E00FF11F61E0808156
:100E100085DCE091A804F091A904E00FF11F60E0E7
:100E2000808108DCD501C401052C04C0880F991FFE
:100E3000AA1FBB1F0A94D2F76C017C01E094F094C6
:100E4000412C8091AA044816F0F4C42DD0E0E09122
:100E5000A604F091A704EC0FFD1F8081C1DB24964E
:100E6000CC0FDD1FCC5BDB4F892B41F4888199814E
:100E70008C299D29998388834394E3CF8881998124
:100E80008E219F21F7CFE091A804F091A904E00FF3
:100E9000F11F61E08081CEDB8091A8049091A904CC
:100EA000080F191F60E0F801808138DC5394A1CF4E
:100EB000C4E4D4E0FE01878D90A1892B21F4148E27
:100EC000768E658E11A2369684E0E038F80799F7A1
:100ED00010E08091AA04181708F051C000E0E12E3C
:100EE000F12CEE0CFF1CF701E45BFB4F7F0120911E
:100EF000AB04021708F041C0F70160817181002E38
:100F000002C0769567950A94E2F7129F900111242A
:100F1000200F311DE4E4F4E080E0458D568D241768
:100F2000350709F465C08F5F36968A30B1F760FFE8
:100F300022C0E4E4F4E090E080E0448D411116C06A
:100F4000E091A404F091A504E20FF31F6081389EA4
:100F5000F001399EF00D1124EC5BFB4F648F368F4E
:100F6000258F10A2178E61E0A2DE05C0019636968D
:100F70008A30910511F70F5FBACF1F5FAACF10E03B
:100F800089A18111182F2696F4E0C038DF07C1F738
:100F900082DE6093A0047093A1048093A2049093D6
:100FA000A304112309F4F8CE80916504882309F481
:100FB000F3CE8091630490916404019709F0ECCE24
:100FC00080916004882309F4E7CEDF91CF911F91CF
:100FD0000F91FF90EF90DF90CF90BF90AF909F90D8
:100FE0008F907F906F905F904F903F902F900895DB
:100FF0006170BACF0F931F934EDE6093AF0370936F
:10100000B0038093B1039093B20387EA93E0A1D930
:1010100097FF1CC040DE0091AF031091B0032091F8
:10102000B1033091B203601B710B820B930B0091E3
:10103000AB031091AC032091AD033091AE03601768
:1010400071078207930708F38FEF9FEF1F910F91AE
:101050000895089590E080E00895CF93DF93EC0128
:1010600060E08E81E7DA61E08E81E4DA60E08E8113
:10107000E1DA8BE891E00197F1F7DF91CF910895E4
:10108000CF92DF92EF92FF920F931F93CF93DF9354
:101090006C017C0187E0E80EF11CD0E0C0E0062F77
:1010A00010E0B8010C2E02C0759567950A94E2F71E
:1010B0006170F70181917F01BDDA2196C430D105BD
:1010C00081F7C601DF91CF911F910F91FF90EF90B3
:1010D000DF90CF90C2CFCF92DF92EF92FF920F932B
:1010E0001F93CF93DF93EC01F62E642F8C81A2DA4D
:1010F0008D818F3F11F060E09DDA0F2D10E08F851C
:1011000084FF23C06E0187E0C80ED11CF12CE12CB6
:10111000B8010E2C02C0759567950A94E2F76170CC
:10112000F60181916F0186DAFFEFEF1AFF0A88E07E
:10113000E816F10469F7CE01DF91CF911F910F916D
:10114000FF90EF90DF90CF9088CFB80184E0759545
:1011500067958A95E1F7CE0193DF6F2DCE01DF9180
:10116000CF911F910F91FF90EF90DF90CF9088CF9C
:1011700040E0682F83EB94E0AECF81E0F9DF8BE3B2
:101180009FE10197F1F70895CF93DF93823029F41F
:101190009091C20498609093C2048093C604109208
:1011A000C70480E48093C80480E18093C90480E58B
:1011B0008093CA0461E08091B704B0DA8091B804EA
:1011C0008F3F11F061E0AADA61E08091B904A6DAFC
:1011D000C3EBD4E09E01235B34408091C20484FDC4
:1011E0000AC084E090E02196281739073CF461E0BA
:1011F0008E8194DAEFCF88E090E0F5CF8BE39DE02D
:101200000197F1F760E08091B70414DA60E0809113
:10121000B90410DA8091B8048F3F11F060E00ADA67
:101220008091C20484FD2CC063E083EB94E028DF4E
:10123000CBE4D6E4CE010197F1F763E083EB94E0D1
:101240001FDF2197F1F763E083EB94E019DF83E57B
:1012500092E00197F1F762E083EB94E011DF809177
:10126000C204806285DF84E08093C3048CE080DF69
:1012700084DF82E08093C40486E0DF91CF9178CF51
:10128000806276DF8BE496E40197F1F78091C204E7
:1012900080626EDF83E592E00197F1F78091C204EE
:1012A000806266DFDCCF9091C604891710F08FEF63
:1012B000890FE82FF0E0ED54FB4F8489806858CF08
:1012C00041E009DF81E090E00895FB0101900020FA
:1012D000E9F73197AF01461B570BDC01ED91FC910B
:1012E0000280F381E02D1994BC0183EB94E0EDCFF3
:1012F0008F929F92AF92BF92CF92DF92EF92FF9226
:101300000F931F93CF93DF93CDB7DEB7A1970FB69F
:10131000F894DEBF0FBECDBF6C01990FEE08FF0839
:10132000F7FE47C06DE287EA93E058D88C01222788
:101330003327A9012C193D094E095F0919A2CE01D5
:1013400081967C019AE0892E912CA12CB12CCA01A6
:10135000B901A501940190D4605DF70162937F010A
:10136000211531054105510591F790E080E0309756
:1013700021F0BF0187EA93E0A8DF080F191F61E49D
:1013800072E087EA93E0A1DF800F911FA1960FB66C
:10139000F894DEBF0FBECDBFDF91CF911F910F91AB
:1013A000FF90EF90DF90CF90BF90AF909F908F9085
:1013B0000895A701960119A28E010F5D1F4F8AE0C3
:1013C000C82ED12CE12CF12CCA01B901A70196013C
:1013D00053D4605DF80162938F01211531054105F9
:1013E000510591F7309731F0BF0187EA93E06DDF47
:1013F0008C01C5CF10E000E0C2CF1F920F920FB654
:101400000F9211240BB60F922F933F934F935F933C
:101410006F937F938F939F93AF93BF93EF93FF93BC
:1014200080919B0390919C03A0919D03B0919E039A
:10143000892B8A2B8B2BE1F190918A03E0918B030E
:10144000F0918C0380818927808380919B03909108
:101450009C03A0919D03B0919E03181619061A06CD
:101460001B069CF480919B0390919C03A0919D038B
:10147000B0919E030197A109B10980939B039093BA
:101480009C03A0939D03B0939E03FF91EF91BF91A6
:10149000AF919F918F917F916F915F914F913F910C
:1014A0002F910F900BBE0F900FBE0F901F901895AD
:1014B00080910002EFD8E9CF1F920F920FB60F92E2
:1014C00011240BB60F922F933F934F935F936F931B
:1014D0007F938F939F93AF93BF93EF93FF9387EA8D
:1014E00093E00E94CC01FF91EF91BF91AF919F914A
:1014F0008F917F916F915F914F913F912F910F90BD
:101500000BBE0F900FBE0F901F9018951F920F9259
:101510000FB60F9211240BB60F922F938F939F93B8
:10152000EF93FF93E091B703F091B8038081E091CE
:10153000BD03F091BE0382FD1DC090818091C00368
:101540008F5F8F732091C103821741F0E091C00338
:10155000F0E0E955FC4F958F8093C003FF91EF9128
:101560009F918F912F910F900BBE0F900FBE0F90F8
:101570001F9018958081F2CF1F920F920FB60F9295
:1015800011242F933F938F939F93AF93BF93809199
:101590007F0390918003A0918103B09182033091E9
:1015A0007E0323E0230F2D3758F50196A11DB11DB1
:1015B00020937E0380937F0390938003A093810305
:1015C000B09382038091830390918403A09185035B
:1015D000B09186030196A11DB11D80938303909362
:1015E0008403A0938503B0938603BF91AF919F912D
:1015F0008F913F912F910F900FBE0F901F901895D4
:1016000026E8230F0296A11DB11DD2CF1092AA0386
:101610001092A90388EE93E0A0E0B0E08093AB03C2
:101620009093AC03A093AD03B093AE038DE192E031
:101630009093A8038093A70385EC90E09093B40364
:101640008093B30384EC90E09093B6038093B5034A
:1016500080EC90E09093B8038093B70381EC90E026
:101660009093BA038093B90382EC90E09093BC030B
:101670008093BB0386EC90E09093BE038093BD0300
:101680001092C0031092C1031092C2031092C303C0
:101690001092B6041092B50489E392E09093B404DA
:1016A0008093B3048AE18093B7048FEF8093B804EA
:1016B0008BE18093B9048CE18093BA048DE180932F
:1016C000BB048EE18093BC048FE18093BD04109233
:1016D000BE041092BF041092C0041092C104109274
:1016E000C20481E051DD1092460410924A04109227
:1016F000490410924B048FE292E09093450480934A
:101700004404E0E6F4E010821482138215823696D7
:1017100084E0EC39F807B9F785E092E09093A704EC
:101720008093A60481E092E09093A9048093A8049A
:1017300084E08093AA048093AB0489E092E09093C4
:10174000A5048093A4048AE090E09093AD04809374
:10175000AC0484EF91E09093AF048093AE041092B8
:10176000B2041092B1041092A0041092A10410923D
:10177000A2041092A3041092B0040895789484B542
:10178000826084BD84B5816084BD85B5826085BD7D
:1017900085B5816085BD80916E00816080936E000B
:1017A00010928100809181008260809381008091FD
:1017B00081008160809381008091800081608093AE
:1017C00080008091B10084608093B1008091B0006E
:1017D00081608093B000809191008260809391003D
:1017E0008091910081608093910080919000816050
:1017F000809390008091A10082608093A1008091ED
:10180000A10081608093A1008091A00081608093FD
:10181000A0008091210182608093210180912101AB
:10182000816080932101809120018160809320015B
:1018300080917A00846080937A0080917A0082603F
:1018400080937A0080917A00816080937A00809101
:101850007A00806880937A001092C100E091B7030B
:10186000F091B80382E08083E091B303F091B40378
:101870001082E091B503F091B6038FEC8083109253
:10188000BF03E091BB03F091BC0386E08083E0914D
:10189000B903F091BA03808180618083E091B9033C
:1018A000F091BA03808188608083E091B903F09160
:1018B000BA03808180688083E091B903F091BA0314
:1018C00080818F7D808382E05FDC61E085E20E9421
:1018D0008E0361E086E20E948E03CAE04EDC61E086
:1018E00085E20E941A0384E492E0FEDC64E670E084
:1018F00080E090E0A0D941DC80E0D5DC85E592E095
:10190000F3DC81E0D0DC86E692E0EEDC28DA8A3295
:1019100009F04FC060E085E20E941A0361E086E2B0
:101920000E941A032ADC81E792E0DEDC81E0BBDC66
:101930008CE792E0D9DC68EC70E080E090E07BD945
:1019400060E086E20E941A0361E085E20E941A03C9
:1019500081E0A9DC8BE892E0C7DC68EC70E080E015
:1019600090E069D960E085E20E941A0361E086E2B6
:101970000E941A0381E097DC8CE992E0B5DC68EC08
:1019800070E080E090E057D960E086E20E941A03A0
:1019900061E085E20E941A0381E085DC8DEA92E035
:1019A000A3DC68EC70E080E090E045D90E94590229
:1019B00095CF8B3209F03BC160E085E20E941A03AB
:1019C000DCDB8EEB92E090DC81E06DDCC8D9D82FB7
:1019D00041E0682F83EB94E07EDB80ED8D0F8A3051
:1019E00008F0C5C08D2FDD0F990BC097C89F7001FF
:1019F000C99FF00C112401E010E0B1D9D82F41E0CB
:101A0000682F83EB94E067DB80ED8D0F8A3008F060
:101A1000BEC00130110509F0BAC08D2FDD0F990B42
:101A2000C0978E0D9F1D64DCA8DB8FEC92E05CDC20
:101A300064E170E080E090E0FED8DCDAFC0197FD24
:101A4000A2C08D32910521F0C0970A9708F094C08A
:101A5000C12CD12C7601D0E0E130F105D1F0ED328E
:101A6000F10509F48EC0CF01C0970A9790F4AAE05F
:101A7000B0E0A7019601E7D06F01FF0FEE08FF0865
:101A8000C60ED71EE81EF91E80E3C81AD108E10869
:101A9000F10887EA93E00E949501ACDAFC01C09757
:101AA0000A97D0F2E130F105B9F2DD2341F0F0946C
:101AB000E094D094C094C11CD11CE11CF11CCD2831
:101AC00009F081C05ADB61E085E20E941A038EEEC4
:101AD00092E00ADC62E370E080E090E0ACD860E085
:101AE00086E20E941A038FEF92E0FEDB81E0DBDBEF
:101AF0008FE093E0F9DB33D9D82F8FEC8D0F843052
:101B000008F092C041E06D2F83EB94E0E4DA64E6E4
:101B100070E080E090E08FD880E0C5DB89E193E061
:101B2000E3DB1DD98B3209F063C081E090E0E0DB9C
:101B30008D2FDD0F990BC097DBDB61E085E20E9402
:101B40001A031BDB8AE293E0CFDB81E0ACDB8BE3A3
:101B500093E0CADB88EE93E00E94CA0364E670E07B
:101B600080E090E068D888E00E944A031FCF10E030
:101B700000E0F12CE12C41CF87EA93E00E9495012F
:101B80005CCFD1E086CFC12CD12C760198CFF5DA8D
:101B900060E085E20E941A0361E086E20E941A0377
:101BA00080EE92E0A1DB8CE291E00E94CA0364E641
:101BB00070E080E090E03FD860E086E20E941A0387
:101BC00088E00E944A03D9DA60E085E20E941A03A5
:101BD00061E086E20E941A038CE693E085DB8CE2EA
:101BE00091E00E94CA0364E670E080E090E016C0D5
:101BF0008D3209F0DBCE90E080E07ADB61E086E2B6
:101C00000E941A03BADA8CE493E06EDB8CE291E076
:101C10000E94CA0362E370E080E090E00CD860E0CC
:101C200086E20E941A039FCF90E080E061DBA5DA94
:101C300060E085E20E941A0361E086E20E941A03D6
:101C40008DE593E0CBCF09D0A59F900DB49F900D6B
:101C5000A49F800D911D11240895A29FB001B39FF0
:101C6000C001A39F700D811D1124911DB29F700DA5
:101C7000811D1124911D0895A1E21A2EAA1BBB1BE0
:101C8000FD010DC0AA1FBB1FEE1FFF1FA217B30748
:101C9000E407F50720F0A21BB30BE40BF50B661F5E
:101CA000771F881F991F1A9469F760957095809522
:101CB00090959B01AC01BD01CF010895052E97FBC6
:101CC00016F400940FD057FD05D0D6DF07FC02D0E4
:101CD00046F408C050954095309521953F4F4F4FA1
:101CE0005F4F089590958095709561957F4F8F4FC8
:101CF0009F4F0895EE0FFF1F881F8BBF0790F6912F
:081D0000E02D1994F894FFCFC7
:101D0800FF323334352E2F30313738392F343536CA
:101D18002A3132332D4F303D2B00000000EE01599F
:101D28000186013A02B7019501A90100000000F3FC
:101D3800054703180300000000600959012A082913
:101D4800080D0A00202020202057656C636F6D6500
:101D5800202020200053656520546865204E616D61
:101D680065733A202A00546F20566F74653A202B09
:101D780000436F646520204E616D6500312020208E
:101D880020204D6F68616D6D616400322020202035
:101D9800204D6972486F737365696E003320202087
:101DA800202048617373616E202020200034202099
:101DB8002020204D61686D6F756420202000456EDD
:101DC8007465722049443A20326469676974002056
:101DD8002020566572696679696E67202020200088
:101DE800496E76616C6964204944212121002020D4
:101DF8002049442069732056616C6964202000459D
:101E08006E7465722054686520436F64653A0043B8
:101E18006F64652049733A2000436F6E6669726D7E
:101E28003F202B2F2D2020202000202020546861C7
:101E38006E6B20796F75202020200020466F72205D
:101E4800596F757220566F7465202000202020413C
:101E5800626F7274696E67212121202000496E76B5
:101E6800616C6964204B657921212100596F7520C7
:0E1E78004861766520566F7465642121000074
:00000001FF
