:1000000002C1000031C100002FC100002DC100005D
:100010002BC1000029C1000027C1000025C100003C
:1000200023C1000021C100001FC100001DC100004C
:100030001BC1000019C1000017C1000015C100005C
:1000400013C1000011C100000FC100000DC100006C
:100050000BC1000009C1000007C100000C94110A87
:1000600003C100000C94E7090C94BE09FDC0000018
:10007000FBC00000F9C00000F7C00000F5C00000A0
:10008000F3C00000F1C00000EFC00000EDC00000B0
:100090000C9495090C946C09E7C00000E5C00000C1
:1000A000E3C00000E1C00000DFC00000DDC00000D0
:1000B000DBC00000D9C00000D7C00000D5C00000E0
:1000C000D3C00000D1C00000CFC000000C94430991
:1000D0000C941A09C9C000000C94F1080C94C808CB
:1000E000C3C0000000002100240027002A002D00CA
:1000F0003000330001010000040107010A01000083
:100100002200250028002B002E00310034000201BF
:100110000000050108010B0100002000230026005B
:1001200029002C002F00320000010000030106010D
:10013000090105050505070508080808020202026D
:100140000A0A080804040404010101010101010173
:100150000303030303030303040707070C0C0C0C3E
:100160000C0C0C0C02020202060606060606060627
:100170000B0B0B0B0B0B0B0B0102102020080810B4
:100180002040102040800201020108040201010207
:1001900004081020408080402010080402018004E0
:1001A000020180402010080402010804020101023B
:1001B0000408102040800102040810204080000044
:1001C0000A0B02090C0D0E080703040100000000D1
:1001D000000000000000000000000000000000001F
:1001E00000000000000000000000121110000000DC
:1001F00000000000000000000000000000000000FF
:10020000000000005B0A11241FBECFEFD1E2DEBF69
:10021000CDBF00E00CBF26E0AEEFB2E001C01D9202
:10022000AE30B207E1F712E0A0E0B2E0ECEDF1E2AF
:1002300000E00BBF02C007900D92AE3FB107D9F7A7
:1002400011E0C3E0D1E000E006C021970109802F52
:10025000FE010E94D30EC230D10780E00807A9F743
:100260000E94C70B0C94EC10CBCEFC01A089B18985
:1002700082E08C93A485B5851C92A685B7858FEC0A
:100280008C93108EA489B58986E08C93A289B3895A
:100290008C9180618C93A289B3898C9188608C93B6
:1002A000A289B3898C9180688C930288F389E02DB0
:1002B00080818F7D8083089596E0899FD0011124ED
:1002C000AD57BA4F90967C936E935F9791E091965D
:1002D0009C939197E091F005F091F1059091EF05D5
:1002E000992339F0309751F0811108C080919F0512
:1002F0001994309719F05C968C91FACF0895AF92CB
:10030000BF92CF92DF92EF92FF920F931F93CF9302
:10031000DF936C017B018B01040F151FEB015E0164
:10032000AE18BF08C017D10759F06991D601ED91F9
:10033000FC910190F081E02DC6011995892B79F788
:10034000C501DF91CF911F910F91FF90EF90DF904A
:10035000CF90BF90AF900895FC01A089B1898C9196
:10036000A689B78982FD0FC09C91818D8F5F8F73A5
:10037000228D821749F0A18DAE0FBF2FB11D5D9662
:100380009C93818F08958C910895FC01538D448D29
:10039000252F30E0842F90E0821B930B541710F030
:1003A000CF96089501970895FC01918D828D98173D
:1003B00061F0A28DAE0FBF2FB11D5D968C91928D15
:1003C0009F5F9F73928F90E008958FEF9FEF089546
:1003D000FC01918D828D981731F0828DE80FF11D0F
:1003E000858D90E008958FEF9FEF0895FC01918D2A
:1003F000228D892F90E0805C9F4F821B91098F7323
:10040000992708958FE093E0F1DF21E0892B09F42B
:1004100020E0822F08958CEA93E0E8DF21E0892B29
:1004200009F420E0822F089589E494E0DFDF21E0E1
:10043000892B09F420E0822F089586EE94E0D6DF20
:1004400021E0892B09F420E0822F0895FC01A48D7E
:10045000A80FB92FB11DA35ABF4F2C91848D90E0E6
:1004600001968F739927848FA689B7892C93A089C9
:10047000B1898C91837080648C93938D848D981353
:1004800006C00288F389E02D80818F7D80830895E6
:10049000EF92FF920F931F93CF93DF93EC0181E0D4
:1004A000888F9B8D8C8D98131AC0E889F98980817B
:1004B00085FF15C09FB7F894EE89FF896083E889AE
:1004C000F98980818370806480839FBF81E090E0A0
:1004D000DF91CF911F910F91FF90EF900895F62E2D
:1004E0000B8D10E00F5F1F4F0F731127E02E8C8DC7
:1004F0008E110BC00FB607FCFACFE889F98980810D
:1005000085FFF5CFCE01A2DFF2CFEB8DEC0FFD2FF3
:10051000F11DE35AFF4FF0829FB7F8940B8FEA89E1
:10052000FB8980818062D0CFCF93DF93EC01888DEF
:100530008823B1F0AA89BB89E889F9898C9185FD66
:1005400003C0808186FD0CC00FB607FCF7CF8C91ED
:1005500085FFF2CF808185FFEDCFCE0177DFEACF37
:10056000DF91CF91089580E090E0892B21F065DF45
:1005700081110E94000080E090E0892B21F054DF7F
:1005800081110E94000080E090E0892B21F043DF80
:1005900081110E94000080E090E0892B21F032DF81
:1005A00081110C94000008958150823108F05AC0E6
:1005B000E82FF0E08827E052FD4F8F4F0C94D30EC8
:1005C00000030403F202F802FC02320307030D03E6
:1005D000110317031B031F032503290332032D03F4
:1005E00033033703809180008F77809380000895D4
:1005F000809180008F7DF9CF80918000877FF5CF3B
:1006000084B58F7784BD089584B58F7DFBCF8091AD
:10061000B0008F778093B00008958091B0008F7DF7
:10062000F9CF809190008F7780939000089580910A
:1006300090008F7DF9CF80919000877FF5CF8091DA
:10064000A0008F778093A00008958091A0008F7DF7
:10065000F9CF8091A000877FF5CF809120018F771F
:10066000809320010895809120018F7DF9CF8091A2
:100670002001877FF5CFCF93DF93282F30E0F9015A
:10068000E254FE4F8491F901E858FE4FD491F901EC
:10069000EE5CFE4FC491CC2399F0811185DFEC2FE5
:1006A000F0E0EE0FFF1FE85EFE4FA591B491EC91D4
:1006B000ED2381E090E009F480E0DF91CF9108958F
:1006C00080E090E0FACF862FD6CF1F93CF93DF93B1
:1006D000282F30E0F901E254FE4F8491F901E858E7
:1006E000FE4FD491F901EE5CFE4FC491CC23A1F0F2
:1006F000162F811159DFEC2FF0E0EE0FFF1FE250B3
:10070000FF4FA591B4918FB7F894EC91111108C0E7
:10071000D095DE23DC938FBFDF91CF911F91089599
:10072000DE2BF8CF862F642FD0CFCF93DF9390E0CE
:10073000FC01E858FE4F24918E5C9E4FFC01849191
:100740008823C9F090E0880F991FFC01EC51FF4FFE
:10075000A591B491FC01E250FF4FC591D491611174
:100760000DC09FB7F8948C91209582238C9388813B
:10077000282328839FBFDF91CF910895623051F4E1
:100780009FB7F8943C91822F809583238C93E881C6
:100790002E2BEFCF8FB7F894EC912E2B2C938FBF8D
:1007A000EACF862F642FC1CF3FB7F894809103031F
:1007B00090910403A0910503B091060326B5A89B70
:1007C00005C02F3F19F00196A11DB11D3FBFBA2FE3
:1007D000A92F982F8827BC01CD01620F711D811DA3
:1007E000911D42E0660F771F881F991F4A95D1F728
:1007F00008958F929F92AF92BF92CF92DF92EF9225
:10080000FF92D2DF4B015C0182E3C82ED12CE12C98
:10081000F12CCADF681979098A099B09683E73407F
:1008200081059105B0F321E0C21AD108E108F10871
:1008300088EE880E83E0981EA11CB11CC114D1045F
:10084000E104F10431F7FF90EF90DF90CF90BF907B
:10085000AF909F908F9008952FB7F8946091FF020A
:100860007091000380910103909102032FBF0895BE
:100870000F931F93CF93DF93EC01EEDF68877987A7
:100880008A879B87CE01A4DD97FF14C0E5DF08852A
:1008900019852A853B85601B710B820B930B0C819C
:1008A0001D812E813F81601771078207930750F3E6
:1008B0008FEF9FEFDF91CF911F910F910895CF920E
:1008C000DF92EF92FF921F93CF93DF93EC01CE0163
:1008D000CFDFFC0197FD4CC08D32910521F0C09710
:1008E0000A9708F040C0C12CD12C760110E0E1300D
:1008F000F105D1F0ED32F105C9F1CF01C0970A97AA
:1009000098F4AAE0B0E0A70196010E94980E6F014A
:10091000FF0FEE08FF08C60ED71EE81EF91E80E383
:10092000C81AD108E108F108CE013EDDCE01A0DFF2
:10093000FC01C0970A97D8F2E130F105C1F211230A
:1009400041F0F094E094D094C094C11CD11CE11CFF
:10095000F11CC701B601DF91CF911F91FF90EF907D
:10096000DF90CF900895CE011FDDB1CF11E0DCCF35
:10097000C12CD12C7601EDCF0F931F93CF93DF9332
:10098000C82FD62F86E0C89FF0011124ED57FA4FEB
:1009900011A2878D90A181309105E1F058F082304D
:1009A0009105D1F1039709F43CC0DF91CF911F91DC
:1009B0000F9108956623C9F361E070E08C2F7CDC11
:1009C0004BDF6093DB057093DC058093DD0590932E
:1009D000DE05EBCF41DF0091DB051091DC052091B6
:1009E000DD053091DE05AB01BC01401B510B620BF4
:1009F000730B8091ED059091EE05B0E0A0E08417B7
:100A00009507A607B70740F462E070E08C2FDF91EE
:100A1000CF911F910F9150CC63E070E0D111C5CF01
:100A2000F5CF70E060E0F2CF6F927F928F929F924D
:100A3000AF92BF92CF92DF92EF92FF920F931F93EC
:100A4000CF93DF9381E08093EF0506DF0091DF0510
:100A50001091E0052091E1053091E205AB01BC0168
:100A6000401B510B620B730B8091EB059091EC05D1
:100A7000B0E0A0E084179507A607B70708F00CC1FF
:100A8000C0E08091E905C81758F4E091E505F091C0
:100A9000E605EC0FF11D62E0808147DECF5FF1CF0C
:100AA000712C812C912C540183948091EA05781645
:100AB00008F05AC0072D10E0E091E705F091E80535
:100AC000E00FF11F61E0808130DEE091E705F091F9
:100AD000E805E00FF11F60E08081F7DDD501C4017A
:100AE000072C04C0880F991FAA1FBB1F0A94D2F7B6
:100AF0006C017C01E094F094612C8091E90568160A
:100B0000F0F4C62DD0E0E091E505F091E605EC0F9C
:100B1000FD1F8081B0DD2496CC0FDD1FCD57DA4F4D
:100B2000892B41F4888199818C299D299983888317
:100B30006394E3CF888199818E219F21F7CFE09143
:100B4000E705F091E805E00FF11F61E08081BDDD70
:100B50008091E7059091E805080F191F60E0F80102
:100B60008081E3DD7394A1CFC3E8D5E0FE018FEF70
:100B70009FEF278D30A1232B21F4148E968F858F24
:100B800011A2369625E0EF3BF20799F7F12C96E09B
:100B9000D92E8091E905F81608F04FC0E12C0F2DF1
:100BA00010E0000F111F05571A4F2091EA05E216B9
:100BB00008F041C0F801608171810E2C02C0769569
:100BC00067950A94E2F7F29E900111242E0D311DD3
:100BD000E3E8F5E080E0458D568D2417350709F4EC
:100BE0005FC08F5F36968A30B1F760FF22C0E3E8BE
:100BF000F5E090E080E0448D411116C0E091E305FE
:100C0000F091E405E20FF31F4081D89EF001D99ED8
:100C1000F00D1124ED57FA4F448F368F258F10A217
:100C2000178E61E0A9DE05C0019636968A309105DF
:100C300011F7E394BACFF394ACCF10E089A18111FE
:100C4000182F2696F5E0CF3BDF07C1F705DE60934E
:100C5000DF057093E0058093E1059093E205112391
:100C6000D9F08091A4058823B9F08091A2059091D4
:100C7000A305019789F480919F05DF91CF911F9182
:100C80000F91FF90EF90DF90CF90BF90AF909F902B
:100C90008F907F906F9008951092EF0580E0EDCFD8
:100CA0006170C0CF089590E080E00895CF93DF9306
:100CB000EC0160E08E8109DD61E08E8106DD60E09F
:100CC0008E8103DD8BE891E00197F1F7DF91CF9101
:100CD0000895CF92DF92EF92FF920F931F93CF93DD
:100CE000DF936C017C0187E0E80EF11CD0E0C0E0EE
:100CF000062F10E0B8010C2E02C0759567950A9476
:100D0000E2F76170F70181917F01DFDC2196C43049
:100D1000D10581F7C601DF91CF911F910F91FF900F
:100D2000EF90DF90CF90C2CFCF92DF92EF92FF9201
:100D30000F931F93CF93DF93EC01F62E642F8C81DA
:100D4000C4DC8D818F3F11F060E0BFDC0F2D10E01F
:100D50008F8584FF23C06E0187E0C80ED11CF12C63
:100D6000E12CB8010E2C02C0759567950A94E2F744
:100D70006170F60181916F01A8DCFFEFEF1AFF0AA5
:100D800088E0E816F10469F7CE01DF91CF911F9159
:100D90000F91FF90EF90DF90CF9088CFB80184E063
:100DA000759567958A95E1F7CE0193DF6F2DCE019A
:100DB000DF91CF911F910F91FF90EF90DF90CF9037
:100DC00088CF40E0682F82EF95E0AECF81E0F9DF79
:100DD0008BE39FE10197F1F70895CF93DF93823082
:100DE00029F490910106986090930106809305067E
:100DF0001092060680E48093070680E1809308063F
:100E000080E58093090661E08091F6058EDC809193
:100E1000F7058F3F11F061E088DC61E08091F80513
:100E200084DCC2EFD5E09E01225F3540809101064F
:100E300084FD0AC084E090E02196281739073CF42D
:100E400061E08E8172DCEFCF88E090E0F5CF8BE33C
:100E50009DE00197F1F760E08091F60536DC60E0F7
:100E60008091F80532DC8091F7058F3F11F060E04A
:100E70002CDC8091010684FD2CC063E082EF95E0BC
:100E800028DFCBE4D6E4CE010197F1F763E082EFEF
:100E900095E01FDF2197F1F763E082EF95E019DF1E
:100EA00083E592E00197F1F762E082EF95E011DFD0
:100EB00080910106806285DF84E0809302068CE0E9
:100EC00080DF84DF82E08093030686E0DF91CF91AC
:100ED00078CF806276DF8BE496E40197F1F780911A
:100EE000010680626EDF83E592E00197F1F7809161
:100EF0000106806266DFDCCFE0910506E23038F45F
:100F0000E150F0E0EE50FA4F848980685ACFE1E07A
:100F1000F8CF41E009DF81E090E00895FB01019006
:100F20000020E9F73197AF01461B570BDC01ED912B
:100F3000FC910280F381E02D1994BC0182EF95E0D1
:100F4000EDCF4F925F926F927F92AF92BF92CF920E
:100F5000DF92EF92FF920F931F93CF93DF93CDB762
:100F6000DEB7A1970FB6F894DEBF0FBECDBF5C0110
:100F70006A017B01F7FE45C0DC01ED91FC91019017
:100F8000F081E02D6DE219958C0122273327A9010C
:100F90002C193D094E095F0919A2FE01B1967F0186
:100FA0009AE0492E512C612C712CCA01B901A30180
:100FB0009201D7D6605DD7016E937D012115310571
:100FC0004105510591F790E080E0109719F0BD01BF
:100FD000C501A4DF800F911FA1960FB6F894DEBF64
:100FE0000FBECDBFDF91CF911F910F91FF90EF907A
:100FF000DF90CF90BF90AF907F906F905F904F90B9
:101000000895AB01960119A28E010F5D1F4F8AE072
:10101000C82ED12CE12CF12CCA01B901A7019601EF
:10102000A0D6605DF80162938F012115310541055D
:10103000510591F790E080E0309771F2BF01C50152
:101040006DDFCACF0F931F93CF93DF93EC01AB01FA
:10105000770F660B770B75DF8C0168E472E0CE01C9
:101060005DDF800F911FDF91CF911F910F91089548
:10107000CF93DF93EC01049645D621E030E08C1746
:101080001D0611F030E020E0C901DF91CF910895F5
:101090000F931F93CF93DF938B01EC012197CE0128
:1010A00031D6682F70E06F3F710509F460E06F5F23
:1010B000CE0130D6CC0FDD1FC95FDC4F888199810E
:1010C00001969983888361E086E1FFDA60E086E13A
:1010D000FCDA602FC8010496DF91CF911F910F9128
:1010E00019C60F931F93CF93DF93EC0188819981E9
:1010F000009759F02A813B812617370730F081E0AD
:10110000DF91CF911F910F9108958B016F5F7F4FFA
:1011100077D7009759F0998388831B830A832C81A2
:101120003D81232B61F7FC011082E9CF80E0E8CFFD
:10113000EF92FF920F931F93CF93DF931F921F9213
:10114000CDB7DEB78C0169831A82FC01E480F5809B
:10115000FFEFEF1AFF0AB701C4DF882381F0F8011F
:101160002081318184819581BE016F5F7F4F820F25
:10117000931F0E94E510F801F582E48281E00F9050
:101180000F90DF91CF911F910F91FF90EF900895F5
:101190001F920F920FB60F9211240BB60F922F933E
:1011A0003F934F935F936F937F938F939F93AF93EF
:1011B000BF93EF93FF938FE093E048D9FF91EF91B6
:1011C000BF91AF919F918F917F916F915F914F915F
:1011D0003F912F910F900BBE0F900FBE0F901F905D
:1011E00018951F920F920FB60F9211240BB60F9203
:1011F0002F933F934F935F936F937F938F939F931F
:10120000AF93BF93EF93FF938FE093E0A5D8FF9147
:10121000EF91BF91AF919F918F917F916F915F916E
:101220004F913F912F910F900BBE0F900FBE0F90DB
:101230001F9018951F920F920FB60F9211240BB6A4
:101240000F922F933F934F935F936F937F938F935F
:101250009F93AF93BF93EF93FF938CEA93E0F6D8FD
:10126000FF91EF91BF91AF919F918F917F916F917E
:101270005F914F913F912F910F900BBE0F900FBE3A
:101280000F901F9018951F920F920FB60F92112476
:101290000BB60F922F933F934F935F936F937F9370
:1012A0008F939F93AF93BF93EF93FF938CEA93E059
:1012B00053D8FF91EF91BF91AF919F918F917F9103
:1012C0006F915F914F913F912F910F900BBE0F90B7
:1012D0000FBE0F901F9018951F920F920FB60F928E
:1012E00011240BB60F922F933F934F935F936F93FD
:1012F0007F938F939F93AF93BF93EF93FF9389E473
:1013000094E0A4D8FF91EF91BF91AF919F918F91FD
:101310007F916F915F914F913F912F910F900BBEF5
:101320000F900FBE0F901F9018951F920F920FB63F
:101330000F9211240BB60F922F933F934F935F930D
:101340006F937F938F939F93AF93BF93EF93FF938D
:1013500089E494E001D8FF91EF91BF91AF919F9103
:101360008F917F916F915F914F913F912F910F904E
:101370000BBE0F900FBE0F901F9018951F920F92EB
:101380000FB60F9211240BB60F922F933F934F93EA
:101390005F936F937F938F939F93AF93BF93EF93DD
:1013A000FF9386EE94E052D8FF91EF91BF91AF91F9
:1013B0009F918F917F916F915F914F913F912F916D
:1013C0000F900BBE0F900FBE0F901F9018951F929D
:1013D0000F920FB60F9211240BB60F922F933F93DB
:1013E0004F935F936F937F938F939F93AF93BF932D
:1013F000EF93FF9386EE94E00E94AC01FF91EF9192
:10140000BF91AF919F918F917F916F915F914F911C
:101410003F912F910F900BBE0F900FBE0F901F901A
:1014200018951F920F920FB60F9211242F933F938E
:101430008F939F93AF93BF938091FF02909100038E
:10144000A0910103B09102033091FE0223E0230F2B
:101450002D3758F50196A11DB11D2093FE028093F2
:10146000FF0290930003A0930103B09302038091C5
:10147000030390910403A0910503B0910603019624
:10148000A11DB11D8093030390930403A093050352
:10149000B0930603BF91AF919F918F913F912F9190
:1014A0000F900FBE0F901F90189526E8230F0296FD
:1014B000A11DB11DD2CF109212031092110348EE5C
:1014C00053E060E070E04093130350931403609383
:1014D00015037093160384E292E0909310038093B7
:1014E0000F0325E331E030931C0320931B0324E317
:1014F00031E030931E0320931D0320E331E030934D
:10150000200320931F0321E331E030932203209333
:10151000210322E331E0309324032093230326E3C5
:1015200031E0309326032093250310922803109274
:10153000290310922A0310922B031092AF031092EA
:10154000AE034093B0035093B1036093B203709322
:10155000B3039093AD038093AC0325ED30E030935B
:10156000B9032093B80324ED30E03093BB032093FC
:10157000BA0320ED30E03093BD032093BC0321ED8E
:1015800030E03093BF032093BE0322ED30E0309370
:10159000C1032093C00326ED30E03093C3032093B2
:1015A000C2031092C5031092C6031092C703109293
:1015B000C80310924C0410924B0440934D04509376
:1015C0004E0460934F047093500490934A048093A8
:1015D00049042DEC30E030935604209355042CEC54
:1015E00030E0309358042093570428EC30E03093D7
:1015F0005A042093590429EC30E030935C04209382
:101600005B042AEC30E030935E0420935D042EEC02
:1016100030E03093600420935F04109262041092D3
:10162000630410926404109265041092E90410920D
:10163000E8044093EA045093EB046093EC04709345
:10164000ED049093E7048093E60485EC90E090939A
:10165000F3048093F20484EC90E09093F50480937B
:10166000F40480EC90E09093F7048093F60481EC0E
:1016700090E09093F9048093F80482EC90E09093CA
:10168000FB048093FA0486EC90E09093FD04809331
:10169000FC041092FF0410920005109201051092B4
:1016A00002051092F5051092F40580E492E0909303
:1016B000F3058093F20589E08093F6058FEF809320
:1016C000F70588E08093F80585E08093F90584E0CC
:1016D0008093FA0583E08093FB0582E08093FC050C
:1016E0001092FD051092FE051092FF051092000663
:1016F0001092010681E071DB109285051092890538
:101700001092880510928A0586E392E090938405F2
:1017100080938305EFE9F5E010821482138215822D
:10172000369685E0EB3DF807B9F786E092E09093B6
:10173000E6058093E50582E092E09093E8058093CA
:10174000E70584E08093E9058093EA058AE092E06A
:101750009093E4058093E3058AE090E09093EC0594
:101760008093EB0584EF91E09093EE058093ED0577
:101770001092F1051092F0051092DF051092E0052D
:101780001092E1051092E2051092EF050895CF93B3
:10179000DF9300D000D0CDB7DEB7789484B58260F7
:1017A00084BD84B5816084BD85B5826085BD85B505
:1017B000816085BD80916E00816080936E00109283
:1017C00081008091810082608093810080918100FE
:1017D000816080938100809180008160809380008F
:1017E0008091B10084608093B1008091B0008160ED
:1017F0008093B000809191008260809391008091ED
:10180000910081608093910080919000816080932D
:1018100090008091A10082608093A1008091A1003E
:1018200081608093A1008091A00081608093A000DE
:10183000809121018260809321018091210181604A
:10184000809321018091200181608093200180910B
:101850007A00846080937A0080917A00826080931D
:101860007A0080917A00816080937A0080917A007A
:10187000806880937A001092C10082E0AEDAA6DA26
:1018800086EE94E00E94350189E494E00E943501DF
:101890008CEA93E00E9435018FE093E00E943501CD
:1018A00061E086E10E94950361E087E10E94950373
:1018B00007E013E0F12CE12CC70124D290E08F3F28
:1018C000910511F490E080E0F801819391938F01EC
:1018D000FFEFEF1AFF0A84E0E816F10469F78BE4E2
:1018E00092E02BDB09DB8CE592E027DB88EC90E0D3
:1018F00009D290E08F3F910521F4809100029091F0
:10190000010290930102809300028ED8882309F48B
:1019100025C18D3309F095C01A8219821C821B8261
:101920001E821D8270E060E0CE010196DADB298123
:101930003A81811189C02115310511F0C901D7D231
:101940001A8219821E821D821C821B823FDA03E0EA
:1019500010E06AD8F82E8823E1F3682FCE010196B3
:10196000E7DB41E06F2D82EF95E0DED901501109F0
:1019700081F789819A81009709F46DC088D12091FF
:101980000002309101028901330F220B330B06173D
:1019900017072807390709F0D9C061E086E10E94DE
:1019A000650314DA8DE692E0C8DAA6DA8FE792E0F2
:1019B000C4DA3AD88823E9F38A3209F050C006DA4B
:1019C00080E992E0BADA98DA07E013E0C12CD12C72
:1019D0007601C394B701A60182EF95E0B2DA81EAFD
:1019E00092E0ABDAF801419151918F01052E000C84
:1019F000660B770B82EF95E0A4DA84EA92E09DDA39
:101A00000E94F90379DAFFEFCF1ADF0AEF0AFF0A23
:101A100085E0C816D104E104F104E1F660E086E156
:101A20000E94650360E087E10E946503CFD98BE4E3
:101A300092E083DA61DA8CE592E07FDA89819A813B
:101A400056D20E94B30261CF1E821D826AE472E008
:101A5000C901BBD37BCF60E070E0CB0190CF8B326C
:101A600009F068C060E086E10E946503AFD970E0CC
:101A700060E0CE01019635DB29813A81811135C0C4
:101A80002115310511F0C90132D21A8219821E8244
:101A90001D821C821B8203E010E00E941405F82EB8
:101AA0008823D9F3682FCE01019642DB41E06F2DE8
:101AB00082EF95E039D90150110979F789819A812E
:101AC0000097D1F0E4D06F3F710581059105A4F036
:101AD00061E087E10E94650379D98BEA92E02DDA13
:101AE0000E94F90360E087E122C01E821D826AE441
:101AF00072E0C9016AD3CFCF61E086E10E9465033D
:101B000089819A8160E070E0009709F0C0D0CB0134
:101B1000609300029093010288EC90E0FBD056D9CC
:101B20008AEB92E00ADA0E94F90360E086E10E9403
:101B3000650374CF61E087E10E94650347D98BECB0
:101B400092E0FBD9D9D98CED92E0C9CF61E087E171
:101B50000E9465033BD98DEE92E0C1CF86EE94E002
:101B60000E94F6010297FCF086EE94E00E945F046A
:101B70006B0161157105B9F0CB017ADA8C01BC01FA
:101B800086EE94E05FDA012B71F486EE94E00E9419
:101B90005F046130710539F486EE94E00E945F04C1
:101BA000CB01B60175DA89E494E00E94F601029750
:101BB000FCF089E494E00E945F046B0161157105FB
:101BC000B9F0CB0155DA8C01BC0189E494E03ADA32
:101BD000012B71F489E494E00E945F046130710587
:101BE00039F489E494E00E945F04CB01B60150DA35
:101BF0008CEA93E00E94F6010297FCF08CEA93E0F5
:101C00000E945F046B0161157105B9F0CB0130DAF8
:101C10008C01BC018CEA93E015DA012B71F48CEA9B
:101C200093E00E945F046130710539F48CEA93E01F
:101C30000E945F04CB01B6012BDA8FE093E00E9493
:101C4000F60102970CF4FDCE8FE093E00E945F0452
:101C50006B016115710509F4F4CECB0109DA8C0131
:101C6000BC018FE093E0EED9012B09F0EACE8FE0C2
:101C700093E00E945F046130710509F0E2CE8FE0CD
:101C800093E00E945F04CB01B60102DADACE1F9323
:101C9000FC0199278827BC01E89411911032E9F3DF
:101CA000193010F01E30C8F31B3249F01D3241F4D8
:101CB000689405C012D0610F711D811D911D119195
:101CC00010531A30B8F33EF4909580957095619555
:101CD0007F4F8F4F9F4F1F910895592F482F372FB8
:101CE000262F660F771F881F991F660F771F881F83
:101CF000991F620F731F841F951F660F771F881F20
:101D0000991F0895F999FECF92BD81BDF89A992740
:101D100080B50895262FF999FECF1FBA92BD81BDD7
:101D200020BD0FB6F894FA9AF99A0FBE019608955D
:101D300009D0A59F900DB49F900DA49F800D911D7B
:101D400011240895A29FB001B39FC001A39F700DFD
:101D5000811D1124911DB29F700D811D1124911DB3
:101D60000895A1E21A2EAA1BBB1BFD010DC0AA1FDC
:101D7000BB1FEE1FFF1FA217B307E407F50720F0F4
:101D8000A21BB30BE40BF50B661F771F881F991F6F
:101D90001A9469F760957095809590959B01AC01B8
:101DA000BD01CF010895EE0FFF1F881F8BBF079065
:101DB000F691E02D19940F931F93CF93DF93823008
:101DC000910510F482E090E0E0910C06F0910D0690
:101DD00030E020E0B0E0A0E0309799F42115310523
:101DE00009F44AC0281B390B24303105D8F58A8103
:101DF0009B816115710589F1FB0193838283FE014B
:101E000011C0408151810281138148175907E0F0C8
:101E10004817590799F4109761F012960C9312978E
:101E200013961C933296CF01DF91CF911F910F91A2
:101E3000089500930C0610930D06F4CF211531057B
:101E400051F04217530738F0A901DB019A01BD0197
:101E5000DF01F801C1CFEF01F9CF90930D06809318
:101E60000C06CDCFFE01E20FF31F81939193225018
:101E7000310939832883D7CF20910A0630910B0688
:101E8000232B41F420911C0230911D0230930B064C
:101E900020930A0620911A0230911B022115310568
:101EA00041F42DB73EB740911E0250911F02241BF2
:101EB000350BE0910A06F0910B06E217F307A0F448
:101EC0002E1B3F0B2817390778F0AC014E5F5F4F90
:101ED0002417350748F04E0F5F1F50930B064093B1
:101EE0000A06819391939FCFF0E0E0E09CCFCF93DF
:101EF000DF930097E9F0FC01329713821282A091E0
:101F00000C06B0910D06ED0130E020E01097A1F431
:101F100020813181820F931F20910A0630910B0698
:101F20002817390709F061C0F0930B06E0930A0601
:101F3000DF91CF910895EA01CE17DF07E8F54A81D6
:101F40005B819E0141155105B1F7E901FB83EA83ED
:101F500049915991C40FD51FEC17FD0761F4808199
:101F600091810296840F951FE9019983888382816C
:101F700093819B838A83F0E0E0E012968D919C919F
:101F800013970097B9F52D913C911197CD010296C9
:101F9000820F931F20910A0630910B0628173907EC
:101FA00039F6309751F510920D0610920C06B09349
:101FB0000B06A0930A06BCCFD383C2834081518114
:101FC000840F951FC817D90761F44E5F5F4F888152
:101FD0009981480F591F518340838A819B81938344
:101FE00082832115310509F0B0CFF0930D06E093FF
:101FF0000C069ECFFD01DC01C0CF13821282D7CF29
:102000004F925F926F927F928F929F92AF92BF9208
:10201000CF92DF92EF92FF920F931F93CF93DF93B4
:102020008C01009791F4CB01DF91CF911F910F911B
:10203000FF90EF90DF90CF90BF90AF909F908F90E8
:102040007F906F905F904F90B6CEFC01E60FF71F28
:102050009C0122503109E217F30708F4AAC0D90104
:10206000CD91DC911197C617D70718F1C530D1056E
:1020700070F0CE0104978617970748F0C61BD70B60
:102080002297C193D1936D937C93CF0130DFC80128
:10209000DF91CF911F910F91FF90EF90DF90CF9044
:1020A000BF90AF909F908F907F906F905F904F9078
:1020B00008955B01AC1ABD0A4C018C0E9D1EA091C7
:1020C0000C06B0910D06512C412CF12CE12C1097EF
:1020D00031F580910A0690910B068815990509F053
:1020E0005CC04616570608F058C080911A029091BD
:1020F0001B02009741F48DB79EB740911E0250918C
:102100001F02841B950BE817F90708F052C0F093E3
:102110000B06E0930A06F90171836083B8CF8D91B5
:102120009C91119712966C90129713967C9013972E
:10213000A815B90559F56C0142E0C40ED11CCA14AA
:10214000DB0420F1AC014A195B09DA0112961597FC
:1021500080F06282738251834083D9016D937C93B6
:10216000E114F10471F0D7011396FC93EE931297EA
:102170008ECF22968C0F9D1FF90191838083F301EE
:10218000EFCFF0930D06E0930C0681CF4816590669
:1021900008F42C017D01D3019ACFCB010CDE7C0128
:1021A000009739F0AE01B80107D0C801A0DE870161
:1021B0006ECF10E000E06BCFFB01DC0102C00190AC
:1021C0000D9241505040D8F70895FB01DC01019079
:0C21D0000D920020E1F70895F894FFCF75
:1021DC007B00323334352E2F30313738392F3435AC
:1021EC00362A3132332D4F303D2B00000E06800045
:1021FC000000000048027F01C5019402F601D401E1
:10220C00E80100000000D10392036303000000000A
:10221C0089077F01530652060D0A0020456E74652E
:10222C00722050617373776F72642000202020201D
:10223C00205072657373203D2020202000205368AD
:10224C006F7720526573756C74733A202A200020C6
:10225C00204368616E676520506173733A2B2000D0
:10226C002020566F746520436F756E74733A20206E
:10227C00003A200020202020202000204E6F7420C7
:10228C004368616E67656420200050617373776FDB
:10229C007264204368616E67656400496E76616C98
:1022AC00696420496E707574212121002020202042
:1022BC0041626F7274696E672020202000202020FC
:0E22CC002057726F6E672121212020202000F4
:00000001FF
